:040000000200303298
:03000B00020D677C
:0100130032BA
:01001B0032B2
:03002300020DCDFE
:03002B00020D7152
:100030007580FF7590FF75A0FF75B0FFC293C290E9
:10004000787FE4F6D8FD758180120E78120268126E
:100050000277758921D28CD28E7598D074FDF54CBB
:10006000F58D438780758CF8758ACD75CA0075CB80
:100070007075D042D2ACD2A9D2ADD2AFC297C296DF
:10008000D294758E01908000120DAF120E787568B3
:1000900020756900756A20756B00756C00756D00C0
:1000A000756E10756F00C20DC20CC20FC20E75576F
:1000B00000755800754A0020B5FD783C755903124B
:1000C0000DBA3001FD20B5EFD8F2C202C204C2055C
:1000D00030B5093004031206B7020030120E782042
:1000E000041220B303120122300CE5120170300219
:1000F000DF020040120DAF20B3031201223000FDD9
:10010000200C1920050D20CA10D205120DBFB27D9A
:100110000200D0120E7812072B0200D012017002DA
:1001200000D020B315200D12120D21F5F0856A8341
:10013000856B82F012013B02012222D20CA385833F
:100140006A85826BE583B43006756A20756B00C3DF
:10015000E56F9401F56F5002156EC3E56D2401F54E
:100160006D5002056CE56E7006E56F7002D20D22CF
:10017000200C0302019C856883856982E0F5F054B8
:1001800007F540E5F054F8F547E56C7007E56DC3F9
:1001900095404008E4F0120B4D12019D22E547B452
:1001A000E0041205B822B4E80412048922B4F00471
:1001B0001206B722B4F80412028622B4D004120246
:1001C0002D22B4C8041201DE22B4D804120C6A2213
:1001D000E5477543A9F544754500120CF622120A4D
:1001E000F7E530F54B120CC4E54BB40104120C5486
:1001F00022B4020574FDF54C22B4030574FEF54CDF
:1002000022B4040574FFF54C22B4050412097E22C1
:10021000B40A04120C1422B40B04120C3522B415C7
:1002200004120BF822B41F04120B9A2222120AF7AE
:10023000E530F542700412026822120BE7E53154F2
:10024000F0F0E532A3F0E54D240BF582E54E3400E5
:10025000F583E531540FF0A3E533F0A3E534F0A3C3
:10026000E535F0A3E536F022D293900000E4F0A348
:10027000E583B420F8E422D293902000E4F0A3E5D3
:1002800083B430F8E4227C0A200E040200302220DD
:100290000F14754397855744855845120CF6200472
:1002A00001221206B722E4F542F557F5580542E55A
:1002B0004270040202ED22120BE7E060F0F551A358
:1002C000E0F55230E0E70557E551B4400505580226
:1002D00002ADB4600505580202ADB4300505580200
:1002E00002ADB4100505580202AD0202ADE557702B
:1002F00000E5587000120D99753000753100754099
:10030000017830754100D203D29086992090FD305B
:1003100000FDDCE1753000753109854C32E54CF5A6
:10032000F0E4C39531C395F0F533754004AF4078E0
:1003300030754100D203D290D29B8699082090FD5F
:10034000120D993000FD854C8DE4F5420542E542E1
:1003500085055B755C04700402047622120BE7E0ED
:1003600060EAA3E0F55230E0E3E54D240BF582E5C9
:100370004E3400F583E060D4FB85423074502BF599
:1003800031EB2403F54075410278318B4F08A3E02F
:10039000F6DBFA0888F07402254FFB7830E4C39648
:1003A00008DBFBA8F0F6AF407830D203D290D29BA6
:1003B000869908120CC47D002090FD120DA4200027
:1003C0007AEDB541F9120D6CE55A602DE55B7012BE
:1003D000754389852E44855A45120CF6120DAF02DD
:1003E0000456120DAF155B754388852E44855A451A
:1003F000120CF63000FD02035C305B2AE55B6017EF
:10040000120DAF75438A852E44855A45155B120C33
:10041000F63000FD02035C75438B852E44855A45FA
:10042000120CF60204567538A2854239852E3A120E
:100430000C7C120DAF3000FD02034CE55C6017121E
:100440000DAF754383855C44754500155C120CF651
:100450003000FD02035C120DAF75438D75440075CD
:100460004500120CF6854D82854E83A3E0D2E1F063
:100470003000FD02034CD204D27C75550075560045
:10048000E4F550D206120DBF227C0AD27FC27B1245
:100490000D99120E78753000753100754001783075
:1004A000754100D203D29086992090FD3000FDDC8A
:1004B000DA7C00755700C20FC20E7530007531101E
:1004C0007532F0754003AF407830754100D203D2E9
:1004D00090D29B8699082090FD120D993000FD7AEC
:1004E000000A85055B755C01B2788A307531487504
:1004F0004003754104E4C39AC39448F532AF407891
:1005000030D203D290D29B869908120CC47D002071
:1005100090FD120DA420006EEDB541F9120D6CE5B1
:100520005A602AE55B700F7543A7852E44855A45AE
:10053000120CF602058F120DAF7543A6852E448569
:100540005A45155B120CF63000FD0204EA305B2AB6
:10055000E55B700F7543A9852E44855A45120CF64C
:1005600002058F120DAF155B7543A8852E44855A81
:1005700045120CF63000FD0204EA0C7538A08A39E9
:10058000120C7C02058FE55C6005155C0204EA1222
:100590000DAF3000FDEAB4BF02800281E1EC6006DD
:1005A0008C57D20FC27FD27BC278120CC47538B080
:1005B0008C39120C7CD20E22120AF7C208E530F5F3
:1005C00042E53154F8F548120E1485055B755C035D
:1005D000AF407830D203D290D29B869908120CC4D7
:1005E0007D002090FD120B8EE54170030206B012D3
:1005F0000DA4200074EDB541F9120D6CE55A602C84
:10060000E55B6002800F75436B852E44855A451269
:100610000CF602068E120DAF155B75436A852E44EB
:10062000855A45120CF63000FD0205D0305B2AE5F4
:100630005B700F75436D852E44855A45120CF6028A
:10064000068E120DAF155B75436C852E44855A4599
:10065000120CF63000FD0205D07470254104F53807
:10066000854239120C7C0206ACE55C6016120DAFB7
:10067000155C7543658D44853A45120CF63000FDD6
:100680000205D07543668D44853A45120CF67543D4
:100690008D754442754500120CF6D210120BE7A37B
:1006A000E0F55220E105D2E1F08005221209FA229C
:1006B000120DAF3000FD227530007531107532F02B
:1006C000754003AF407830754100D203D290D29B81
:1006D0008699082090FD120D993000FDC204C205D4
:1006E000C2CA74FDF54CF58DC27CC27D22D27A74EB
:1006F000FDF58D753000753109E54CF532F5F0E406
:10070000C39531C395F0F533754004AF407830752B
:100710004100D203D290D29B8699082090FD120D01
:10072000993000FDE54CF58DC210220550E5507062
:100730000EC206C2053010041206ED22C27A2285CE
:100740005042120BE7E060E3B27854F0F551A3E0B9
:10075000F55230E0D630E179855042855030753120
:1007600040754003754102E4C39550C39440F5328F
:10077000AF407830D203D290D29B869908120CC435
:100780007D002090FD120DA4200043EDB541F9122B
:100790000D6CE55A600F7543A2852E44855A4512AB
:1007A0000CF60207CE305B0F7543A3852E44855AA5
:1007B00045120CF60207CEE552C2E1D2E2F0120970
:1007C000FA75438E754400754500120CF622D2105E
:1007D00022E551B4400A7554887553041208082262
:1007E000B4600A75548875530412080822B4300A9C
:1007F00075548875530412080822B4100A7554B051
:100800007553051208082222C20785055B755C0432
:10081000E550F542F530855431E4C39542C3953136
:10082000F532B279754003AF407830855341C28CC0
:10083000D203D290D29B869908120CC47D002090DE
:10084000FD120DA4120B8E20007CEDB541F9120DA6
:100850006CE55A602AE55B700F75437F852E4485F1
:100860005A45120CF60208EB120DAF155B75437E6C
:10087000852E44855A45120CF63000FD02082430BE
:100880005B2AE55B700F754381852E44855A4512BE
:100890000CF60208EB120DAF155B754380852E44F4
:1008A000855A45120CF63000FD02082412090C206E
:1008B0000603300B537470254104F538E542F539D1
:1008C000120C7C020908E55C6016120DAF155C7510
:1008D00043798D44853A45120CF63000FD02082418
:1008E00075437A8D44853A45120CF675438D7544EF
:1008F00000754500120CF6D210120BE7A3E0F5527A
:1009000020E104D2E1F022221209FA22E54D24026C
:10091000F582E54E3400F583E52EF085462D120B69
:10092000D4E54D2403F582E54E3400F583C20BABCC
:10093000531B1B783AE0666004D20BE6F0A308DB99
:10094000F4E54D2401F582E54E3400F583E030E214
:1009500005C2E2F0D20BE54A700122E54D240AF50A
:1009600082E54E3400F583300B06E54AF002097D3E
:10097000E07008E54AF0D20B02097D14F0227C00F9
:100980000CEC70030209F98C42120BE7E060F154A1
:10099000F0F551A3E0F55230E0E6E551B4400675BC
:1009A00053040209C3B460067553040209C3B4308A
:1009B000067553040209C3B410067553050209C332
:1009C000020980120CC474702553F5388C39E54D3A
:1009D0002403F582E54E3400F583AB531B1B783AB4
:1009E000E0F6A308DBFA120BAFE52DF6120BC1E51A
:1009F0002D08F6120C7C02098022120BE7A3A3E556
:100A00002EF020E10122E54285055B700122120BE8
:100A1000E7E07003020AF6A3E0F55220E003020AC1
:100A2000F630E103C2E1F0E54D240BF582E54E34EA
:100A300000F583E07003020AF6FB85423074502B08
:100A4000F531EB2403F54075410278318B4F08A353
:100A5000E0F6DBFA0888F07402254FFB7830E4C337
:100A60009608DBFBA8F0F6AF407830D203D290D2E4
:100A70009B869908120CC47D002090FD120DA420C5
:100A80000074EDB541F9120D6CE55A602AE55B7012
:100A90000F7543B1852E44855A45120CF6020AF0B3
:100AA000120DAF155B7543B0852E44855A45120C67
:100AB000F63000FD020A0E305B2AE55B700F7543CD
:100AC000B3852E44855A45120CF6020AF0120DAF7A
:100AD000155B7543B2852E44855A45120CF63000DD
:100AE000FD020A0E7538A2854239852E3A120C7C19
:100AF000120DAF3000FD22120CDDAF40EF7003028B
:100B00000B4C7830200C33120CC47538E575393332
:100B100085833A85823B85F03C85403D120C7C12F2
:100B20000CC47538E575393485303A85313B8532EA
:100B30003C85333D120C7C120B4C856883856982A1
:100B4000E0F6F5F0E4F008120B4DDFB822A3858340
:100B500068858269E583B43006756820756900C3CD
:100B6000E56F2401F56F5002056EC3E56D9401F544
:100B70006D5002156CC20DE56C7012E56D700EC201
:100B80000C756820756900756A20756B0022C3E5D5
:100B9000562401F5565002055522E531F54A221238
:100BA0000BE7A3E0F52D22120BE7A3E52DF02212AF
:100BB0000BE7A3A3E0F52D22120BE7A3A3E52DF08D
:100BC00022120BE7E54D2407F582E54E3400F5834C
:100BD000E0F52D22120BE7E54D2407F582E54E34B2
:100BE00000F583E52DF02275F020E542A4F582F5AD
:100BF0004D85F08385F04E22120CC47538F475399A
:100C0000FF753A1585553B85563C120C7C75550091
:100C100075560022120CC47538F57539FF753A0AFD
:100C2000E531F53BF583E532F53CF582E533F53DFD
:100C3000F0120C7C22120CC47538F57539FF753A28
:100C40000BE531F53BF583E532F53CF582E0F53D0A
:100C5000120C7C227538F57539FF753A01753B0029
:100C6000753C09753D16120C7C22D20222AF4078E9
:100C70003020B3FD120D21F608DFF622C2AFC0D03E
:100C8000D2D3C2D4D27E7E08793820B40EE7120DBA
:100C90004109DEF6C27ED0D0D2AF22120E78818A10
:100CA000C2AFC0D0D2D3D2D4D27E7E08796020B475
:100CB0000EE7120D4109DEF6C27ED0D0D2AF22126D
:100CC0000E7881AE753800753900753A00753B00B5
:100CD000753C00753D00753E0A753F0B227530006E
:100CE0007531007532007533007534007535007547
:100CF000360075370022C0E07560C4E542F561E555
:100D000043F562E544F563E545F5648581657566FF
:100D10000A75670B120CA0E4F543F544F545D0E0E5
:100D200022C082C08320B3FD9080007580FFC292F4
:100D3000000000E580000000D2920000D083D08245
:100D400022C082C08390800020B4FD209302D29301
:100D500000F58000000000C2930000000020B4FDF8
:100D6000D293D083D08222D200C28C32C28CC200F5
:100D700032C0E0C0D030CF1CC2CF200117E559707F
:100D800007C2CAD201020D9414F5597007C2CAD223
:100D900001020D94D0D0D0E032758C70758A00D2EB
:100DA0008CC20022758CDC758A00D28CC200227540
:100DB0008CF8758ACDD28CC20022D2CAC2012275AB
:100DC000CA0075CB70755905D2CAC20122C0E0C0F5
:100DD000D030981EC298859949A749E55A2549F50A
:100DE0005A0DEDB54108874619872E020E0F0902EC
:100DF0000E0F300304C29BC203309913C299DF0C5B
:100E0000755A00C2907D00793A020E0F869908D07B
:100E1000D0D0E032C209E54854F8B48804754104E2
:100E200022B4980475410222B4800475410222B4B0
:100E3000A00475410222B4A80475410222B4400402
:100E400075410222B4480475410322B4500475412F
:100E50000222B4080475410022B410047541002236
:100E6000B4200475410022B4900475410222B4B04C
:100E70000475410522D20922C0E0C0D0EBC0E0E5F4
:100E80002FF4C297C2967B08339295D29700C297EF
:0D0E900000DBF5D296D0E0FBD0D0D0E02200
:00000001FF
